:020000040020DA
:20200000E86C00208D222000BBB02000B9B02000B9B02000B9B02000B9B0200000000000CE
:20202000000000000000000000000000B9B02000B9B0200000000000B9B0200057B12000DD
:2020400069B120006FB1200075B120007BB12000000000005DB1200063B12000B9B0200089
:20206000B9B020000000000000000000000000000000000000000000B9B02000000000004E
:202080000000000000000000B9B02000B9B02000B9B02000B9B02000B9B02000B9B020000A
:2020A000B9B02000B9B02000B9B02000B9B02000B9B02000B9B02000B9B02000B9B02000D8
:2020C000B9B02000B9B02000B9B02000B9B02000B9B0200000000000000000000000000053
:2020E00000000000000000000000000000000000000000000000000099372000A9372000F0
:202100000000000000000000000000000000000000000000000000000000000000000000BF
:2021200000000000000000000000000000000000000000000000000000000000000000009F
:2021400000000000000000000000000000000000000000000000000000000000000000007F
:2021600000000000000000000000000000000000000000000000000000000000000000005F
:2021800000000000000000000000000000000000000000000000000000000000000000003F
:2021A00000000000000000000000000000000000000000000000000000000000000000001F
:2021C0000000000000000000000000000000000000000000000000000000000000000000FF
:2021E0000000000000000000000000000000000000000000000000000000000000000000DF
:202200000000000000000000000000000000000000000000000000000000000000000000BE
:2022200000000000000000000000000000000000000000000000000000000000000000009E
:2022400000000000000000000000000000000000000000000000000000000000000000007E
:2022600000000000000000000000000000000000B9B020007D362000A1362000C12A200000
:202280009939200075262000B9B0200008B5094BFF221A600848094A4824E369121A084984
:2022A00098470848084AA369121A0021984701F065FCFEE7B4200D404040002060420020AB
:2022C000E4C4200060420020E764002008B5002000F02AFA012000F027FA0D49002000F080
:2022E000F7FA02F06FFB002002F0B2F901F0ECF900F00AFC00F026FC0821064801F060FB33
:2023000002F074FA62B6BDE80840042008F0D8BE81492000C664002073B51A4B1B68022B35
:2023200008DD1949194A1A4803F038FC19491A4803F034FC6846082101F042FB174E9DF884
:2023400007309DF80650F46A43EA05254AF6CD310220A04729460320A0471A210120A047A3
:20236000736B082269460B20984708F0E1FE00F0B3F800210A4802F02BF8022008F0A0FEEA
:2023800002B070BDC440002031C020002CC0200036C0200045C0200049C12000C8BE200012
:2023A000F84000200022F0B51746154C0125FF2640FA02F3DB071ED504EB4203597814F8E0
:2023C000123061B1D908090301F1804103F0070301F5592105FA03F341F823700BE0D9080F
:2023E000090301F1804103F0070301F5592105FA03F341F823600132032AD9D1F0BD00BF8A
:202400006AC02000F0B5104C00210125FF2640FA01F3DB0714D504EB41035F7814F81130B5
:20242000DA08120302F1804203F0070302F5592205FA03F317B142F8236001E042F8237059
:2024400001310329E3D1F0BD6AC0200070B40E4E0022012516F812300C49D80800030C58BF
:2024600003F0070305FA03F324EA03040C5020390144086801320343032A0B60EAD170BCF3
:202480000720FFF7BFBF00BF6AC0200020940D40084A136823F00403136052F8203C43F064
:2024A000040342F8203C044B00221A60034B01221A70704720C40D4010C00D406A540020B6
:2024C000044B1868C0F30720030904BF1030C0B2704700BF1C300D4008B5FFF7F1FF014BD4
:2024E0001B6808BD1C300D40F8B500F081F80F4B0024D3E900673A46B04238BF7A1C1546EA
:202500000443C3E90045DFF828E0DEE90001821B61EB070312196B41CEE9002301F054FDF6
:2025200018B1BDE8F84001F0D3BCF8BD60420020684200200D4B0E4AE0215A600D4A82F8F8
:202540002310002207219A6019600B490B6843F001030B60094B1A60042243F80C2C012298
:2025600043F8082C0F22DA62704700BF10E000E047E8010000ED00E008200D400C00034078
:20258000034BD3E90023100A40EA0360704700BF60420020034BD3E90023D00B40EA43407A
:2025A000704700BF68420020054B18601C3B1A6842F001021A601A68D207FCD4704700BFEA
:2025C0002800034010B5064C236823F001032360FFF78AFF236843F00103236010BD00BF04
:2025E00010E000E0014B1868704700BF70420020074B084A196804331B681268120442EA5C
:202600000323054A0B43106843EA0060704700BF40500D4048500D404C500D4010B50446C2
:20262000104A1368DB07FCD572B6FFF7E1FF231A062BD8BFC41D0C4B220E1A60C4F307422D
:2026400043F8042CC4F3072243F8082CE2B243F80C2C62B6054B4FF400321C60044B1A6196
:2026600010BD00BF50500D404C500D407042002000E100E008B501F0E1F8074B00221A60F0
:20268000064B4FF40032C3F89021C3F89020BDE8084001F0C1BE00BF7042002000E100E0EE
:2026A000064B1B681B075FBF054B186880F00800C0F3C00048BF0020704700BF18C0004096
:2026C00018D00040164A2C2303FB00234FF6BF7270B5DC680546236C62649BB213F05002E1
:2026E0000DD0104EA369DB0608D456F825301BB12068C0B29847F5E72368F3E770BD13F419
:20270000D06F0BD04FF440732363FF236360E36AE262E362236B43F00103236370BD00BF31
:2027200070BE20007442002001282DE9F74F064600F2BD802C2545435E4B5C1994F9209041
:202740009846B9F1000FC0F2B28094F92230002BC0F2AD80584801F0FBF8584A58F805306A
:202760001168E5680B4313605168636894F921A00B4353609168A36894F822700B4393609C
:202780000023C5F8C83F23690AEBC9021A6094F823305FFA87FB00939DF80030227D19467C
:2027A0005846019300F03EF9019B08221946584600F02EF97FB2424B3F039DF90020F958DF
:2027C0004FF0010E0EFA02F20A43FA504FEA093959F803100EFA0AF20A4349F80320502212
:2027E000AA63AA6B94F8240042F4D062AA6302226A634FF440722A63A2696A62E269AA62F1
:202800007022EA6242B2002A1D4617DB94F925302C4943EAC2030B6094F825101203535931
:202820004CB20EFA04FE4EEA03035351002200F0EFF8254A136843F4004313602C2303FB91
:20284000068393F826904FFA89F4002C1CDB93F827705FFA89F95FFA87FA012251464846A6
:20286000240300F0DFF87FB26359012202FA07F71F43082267515146484600F0C9F8124AEA
:20288000136843F4804313602C2303FB0686F268136B43F00103136396F828300122590987
:2028A00003F01F0302FA03F3084A42F8213003B0BDE8F08F70BE2000A126200028200D4093
:2028C00020940D4004410D4030D0004000E100E001289CBF014B43F820107047744200209C
:2028E000012808D8044B2C2202FB0030C3689A699206FCD41960704770BE2000014B002283
:202900001A60704700500D40014B08221A60704700500D40024BA0221A6050221A60704779
:2029200000500D40014B024A9A60704700ED00E00020200038B5164D164C2B68012223F029
:2029400040032B602368062123F040032360032000F05EF82B68012223F080032B60236853
:20296000072123F080032360032000F051F80A4A0A4B0B491A600A680A4B1340084A002BAC
:20298000F9D113685901FCD413685B01FCD538BD20C40D4000C40D400101020000200D4078
:2029A00004200D40000001012DE9F84304464FEA0438DFF83C9008F1804606F5592600F0C8
:2029C0003DFFD6F8187458F80930E50023FA05F447EA0400C0B2E4B2A840FFB2AC4002F029
:2029E00009F8C6F81C7448F80940BDE8F88300BF18970D40034A044B1A60044B803A1A608B
:202A0000704700BF80400D40804200207C420020034B01EBC0011B6843F82120704700BF03
:202A200080420020034B01EBC0011B6843F82120704700BF7C4200200E2870B50BD1164BCE
:202A4000164E1C6844F002051D60356825F03F0343F001033360124E336823F0FF031A43AB
:202A6000114301430F4A316013681B06FCD50E4B0E4A1B6812680E2803F0FC0343EA02233F
:202A800008BF064A9BB204BF1560034A9BB208BF146018B270BD00BF34000144F4860840D4
:202AA00008700D4000700D400C700D4010700D40024B1868B0FA80F04009704700B7084018
:202AC00010B5074B4FF40042064CC3F89021C3F89020206818B101F093FC0023236010BDED
:202AE00000E100E084420020064A136843F002031360536843F002035360936843F00203E0
:202B00009360704748200D4007B50C4800F020FFFFF7EAFF0A4B1A6842F002021A600022AF
:202B20000192019A0F2A02DC019A0132F8E71A6822F002021A6003B05DF804FBB12A20008F
:202B400054200D40064A136823F002031360536823F002035360936823F00203936070471B
:202B600048200D402DE9F0410E464FEAD0084FEA083400F00701012704F180448F4016F0D1
:202B80000C0304F559246FEA070505D1D4F810342B40C4F810342DE0042B0DD1D4F80434DC
:202BA0002B40C4F80434D4F808342B40C4F80834D4F80C343B430EE0082B0FD1D4F80434BC
:202BC0002B40C4F80434D4F808342B40C4F80834D4F80C342B40C4F80C340BE00C2B09D1BC
:202BE000D4F804342B40C4F80434D4F808343B43C4F8083416F0030204D0022A02D0012AEC
:202C000003D104224046FFF703FF16F0800605D1D4F810342B40C4F810340AE04EB1D4F8AA
:202C20001034074A1F43012303FA08F3C4F810741360D4F820341D40C4F82054BDE8F0810B
:202C400000E100E0044B186800F02200A0F1200358425841704700BF4C860840024B18688E
:202C600000F04000704700BF4C8608402DE9F04107468846FFF7BCFC0F4BDA5D7AB10F4970
:202C80000F4A51F8276002EBC702861BD2E90045A41945F10005C2E900450022DA5513F870
:202CA000083033B9054B012243F82800024B03F80820BDE8F08100BF685B0020705B002007
:202CC000405B0020214B1870002834D0204A13681B03FCD51F4B1A6842F002021A601A6827
:202CE00042F001021A601A681A495007FBD50A6822F001020A601968164A4907FBD41168AF
:202D000041F002011160116841F0010111601A685207FCD5104A136823F004031360D2F819
:202D2000A83123F00403C2F8A8310C4B4FF40052C3F890207047084A136843F00403136085
:202D4000064B4FF400521A61704700BF6E54002004200D40048808408C86084000E100E05A
:202D60000B280DD1082A0DD161B1074B074A083111F8010D43F8040F9342F9D10020704769
:202D80000120704702207047A4850840C485084070B52F4E336813F0400307D02D4D2B6819
:202DA000DCB21B0604D52C4BED221A60002070BD042CF8D9023C8C42F5DCE4B2032C21D0AA
:202DC00001190139032000F0A1FC631E23491B011943032000F0A4FC032000F0ABFC0320FA
:202DE00000F0C0FC032000F0C9FC0028FAD129681B4B4939C9B219702B681A4D18062B702C
:202E0000D1D506E02B6803702B6843702B688370EDE749B289B2042002F0ECF8297803208C
:202E200001F07F0102F0E6F80F4B1B786BB933685A060AD5064B1B681B0603D50B4801F055
:202E4000DFFA02E0044BED221A60204670BD00BF4C860840288808403888084002C0010CA4
:202E60006D5400206B5400206E540020A44000200B282DE9F84F0E4610D1082A40F0828083
:202E800000297FD0414B424A4E1E53F8041D934206F8011FF9D10020BDE8F88F0C286ED14E
:202EA000042A6FD100296DD03A4B3B481A68DFF8F8C022F007021A600268DFF8F0A042F08D
:202EC00008020260DAF80040DCF800101A68DFF8E0E022F07002314F1A60DEF800203D685E
:202EE000E4B2090244EA056401F47F411204214302F47F020A432A490024D1F800805FFA6E
:202F000088F544EA02081A68A94622F0070242F001021A60026842F008020260DAF80000E7
:202F2000DCF800201D68C0B225F0700545F010051D60DEF800303D68120240EA056002F411
:202F40007F421B04024303F47F0313430A6844EA030A5FFA82FBFFF74BFBB8EB0A0869EBB5
:202F60000B094FEAC93105460E4A00234FEAC83041EA584107F0B6FD281A30608BE7012040
:202F8000BDE8F88F0220BDE8F88F00BFC8850840A88508401088084004880840208808404A
:202FA0001C8808400048E80118880840148808402488084010B5154A13689907FCD4134BC7
:202FC0001B685B065EBF124BED221A60114B1B6813B10F4BEF221A600F4A104C137803F04F
:202FE0007F031370237973B1FFF702FB0C4B0D491B69C01AD1E90823121843F10003C1E91E
:20300000082300232371012010BD00BF4C860840388808402C8608406F540020685B00203F
:20302000705B0020405B002010B50C4B93F90020002A08DB0A4AED211160E32111601A783B
:2030400062F07F021A70074C23792BB9FFF7D0FA054B186101232371012010BD6F5400202E
:2030600038880840685B0020705B002010B50A4B04461B6813F03F0302D0FFF79BFF0123C8
:2030800004EB840205492C3A0A600BB1FFF7CCFF034B1C7010BD00BF488608403C8608409A
:2030A0005F4200202DE9F0412E4F3D7815F0010555D12D4B01241C605C609C60A3F5932386
:2030C000A3F51473F8221A600922C3F89021152270331A6003F59B230B2203F59E731A60EC
:2030E000A3F59B23214EA3F5A6731C604023336033684FF07F0843F0200333601C4BD52240
:203100001D60C3F848809A631A4B1878FFF7AEFF33684FF4804223F00C033360164B022042
:20312000C3F80080154B1A6100F010FB1449022000F0ECFA032000F009FB1149032000F0A5
:20314000DDFA104B1878FFF7BDFD29460E4801F03FF93B78204623433B70BDE8F0810020AF
:20316000BDE8F0816F540020A8200D4024860840088608405F4200209486084000E100E095
:20318000288808406E540020A440002038B50C46002900F09780182800F29680DFE800F0E3
:2031A0000D1A1F21283E475B60767A9494947F815883948587898B8D9000444B186810F0D9
:2031C000FF007BD0424B1B6813F0030F0CBF0123022301E03F4B1B782360002038BD3E4B4D
:2031E00000E03E4B1A68043B1B6843EA0223F3E700230B603A4B364A1B6803F001030B607E
:203200001268920644BF43F002030B60354B1B78002BE2D00B6843F00403DDE7324B0020F8
:203220001B780860002BD8D001230B6038BD2F4B2F491A680023D2B201EBC3000079904227
:2032400003D82B4A52F83330C6E701330E2BF3D16FF01703C0E7274B1B685BB2493BBBE74B
:20326000254B1B689B0603D1FFF7DEFE012200E000222248036859B28031FBD0493BDDB280
:203280000AB1FFF797FE6DB22560A6E71C4B93F90030A1E71B4B1B7803F07F039CE70B23ED
:2032A0009AE71A2398E7072396E7032394E7202392E70C2390E708238EE70020206038BDF2
:2032C0007D2389E7022038BD012038BD2C860840248608405F420020CC850840D4850840CA
:2032E000008608406E5400205E4200204086084000BF200058860840488608406086084007
:203300006D5400206B54002010B50B4B1B68990603D1FFF789FE012300E0002307490A6876
:20332000D207FCD5064A1468C4F300140BB1FFF741FE204610BD00BF488608406486084021
:203340004C8608407D2938B505460C4624D8134A13689B07FCD4124B93F90030002B01DBBD
:20336000FFF762FE0F4BEE221A60691EA21C43F8102C2144022000F0C1F9013C0A49240171
:203380002143022000F0CCF9022000F0D3F9022000F0E8F9002038BD012038BD4C860840DC
:2033A0006F5400203888084002C001C038B503880446CBB140F25A42934203D00023038045
:2033C000032038BD194B18781A4628B11B7873B1174B1B7858060AD5822908D1137843B1BC
:2033E000134B1A78520614D440F25A432380012038BD01F0B5FD01F045FD8021FFF7C8FCE4
:203400000028EDDD80B201F021FD0A4BDB689847E6E700221A70084B1D68FFF7CBFDFFF7FD
:2034200041FEAB06E0D0FFF7FFFDDDE76E5400206F5400209CBF2000488608407D28F8B58E
:2034400049D8274B93F90030002B0DDBFFF7D0F80546FFF7E9FD6FF00904641BFFF7C8F884
:20346000C442FBD4012600E000261E4B1B7823B91D4C2368990604D405E0FFF745FF0028C0
:20348000F6D10220F8BD03210420FFF7EFFB174BE9221F461A60042523689A0707D4013DAC
:2034A00015F0FF0503D00620FFF77EF8F4E723689B0703D4EE233B60012404E0206810F082
:2034C0000200FBD1044604210320FFF7CFFB26B1FFF770FD01E00120F8BD2046F8BD00BF01
:2034E0006F5400205E4200204C8608403888084013B50C460D2800F2A180DFE800F00746A1
:203500004E5259757B8F9F9F9F9F9F95012939D011B9FFF74FFD85E08B1E012B00F2908008
:2035200001A90020FFF732FE022C019B19D1022B78D05A1E53425341434A1370FFF73AFD94
:20354000424B434A1968116042221A60D3F8C010404A11601822C3F8C020E922C3F814221A
:2035600060E0022B5ED13C4BEF221A60384B1A68364B1A60374B1A68384B1A60324B1B788C
:20358000002B4FD0FFF750FD4CE0A1F10B030F2B56D8C8B2FFF76AFD44E08CB2E2B2304B22
:2035A00002E08CB22F4BE2B2240A1A605C6039E031F0070344D12C4B11F0010F1A68C1F362
:2035C000800014BF42F0010222F001021A601F4B11F0020F1A6814BF42F0200222F020027B
:2035E0001A60FFF76FFB1DE031F0010028D11F4B197026E001F118031F2B21D81C490D23FB
:2036000051F83300DA00844204DC194B13441A79184B0EE013F1FF33F2D203E0CCB2164B53
:2036200049341C6000200CE0084B1A6819B122F00C021A60F6E742F00C02FAE7012000E04D
:20364000022002B010BD00BF6C540020248608408C4200208842002038880840E4860840A6
:20366000C8850840D0850840008608405E42002000BF2000408608405886084008B5054B6A
:203680001B7813B9044800F0BBFE044B00221A6008BD00BF6E540020A4400020348808407D
:2036A000064B07481A68042A1FBF06490A7842F040020A7000221A6000F0A2BE2C88084035
:2036C000A44000206F54002010B5094C40220021204607F0A3FC074B01221A605C60064B6E
:2036E0004FF480425A604FF400425A6010BD00BF0040002004F00F4000E100E003289EBF54
:20370000014B0001195070470040002003289EBF024B03EB00104160704700BF0040002092
:2037200003289EBF024B03EB00108160704700BF00400020032806D8034901220B6802FA18
:2037400000F018430860704728F00F40032806D8034901220B6802FA00F018430860704747
:2037600020F00F40032806D8034901220B6802FA00F018430860704714F00F4003289FBFBD
:20378000044B03EB0010806800F0070088BF0020704700BF00400020024B4FF0FF321A6089
:2037A000704700BF04F50F40014B01221A6070474CF00F40094A1368084913F4801FFAD190
:2037C000074B1A6822F480321A600A68D203FCD41A6842F400321A60704700BF04200D4071
:2037E00000200D402DE9F04107468846FEF700FF0F4BDA5D7AB10F490F4A51F8276002EBDC
:20380000C702861BD2E90045A41945F10005C2E900450022DA5513F8083033B9054B012263
:2038200043F82800024B03F80820BDE8F08100BF685B0020705B0020405B002010B50E4C38
:2038400023689A0717D00D490B680C4A13F0806FFAD113685B01FCD5FEF7B4FEFFF7AAFF8B
:203860002068002100F00300012818BF0220FFF7B9FF0023236010BD58200D4004200D4033
:2038800038B52D4B1C6814F03F0413D12B4D55F8243023B1984768B10134052CF7D1284D8C
:2038A0002B783BB1FEF79EFE0446FEF7A1FE201A092803D8BDE8384007F06BBC002CF9D094
:2038C000204B21481A6822F400321A6002681E4912F4801FFAD11A6842F480321A600B6838
:2038E000DB03FCD5FEF784FE201A092803D8BDE83840FFF75FBF6328144C02D92B78022B95
:2039000000D00123236000F031FD054620B1FFF751FF0023236038BDFEF764FE0028F6D0D0
:203920002168284601F00301012918BF0221FFF759FF30BF38BD00BF48860840904200207E
:203940007054002000200D4004200D4058200D400749002351F82320824207D01AB9044A25
:2039600042F8230070470133052BF3D1704700BF90420020054B00221A60054A136943F0B9
:2039800004031361034B02221A70704758200D4000ED00E07054002010B5074B4FF4803277
:2039A000064CC3F89021C3F89020206818B100F027FD0023236010BD00E100E0A44200203F
:2039C000134B1B782BB101F5201127310138114B16E0114A1278122AF5D1104A12784B2AD0
:2039E000F1D108448B420ADA03F52012032BD4BF2C3224321278013300F8012DF2E77047F5
:203A0000994204D011F8012900F8012FF8E770472B002800270028002A00280029002800C1
:203A20002DE9F04F038889B005462BB1672B0CD00023038003205CE04FF480712E4807F032
:203A40001BFC67232B80012053E02B4807F026FC0028F8D0284807F018FC00F0E5F900F011
:203A600005FA8046254BDFF8AC90D3F800C0D9F80020DFF8A4A0D3F808E018699F691E6AA3
:203A8000C2EB0C030593DAF800301D4CC3EB0E0306931C4B21681B68C1EB0801C31A079370
:203AA000194BCAF800E01A68184BBA1A1B68DFF854E0F31A02EB030B5945A346CEF8000064
:203AC000114888BF8C1A07601048CBF80080066088BFE41A0193079B98BF0024029200931B
:203AE0000394069B059A0A48C9F800C002F056F8A7E709B0BDE8F08FBC420020405B002098
:203B0000A8420020B0420020B8420020CC420020A6C02000AC420020B442002008B500F0EA
:203B200083F900F0A3F90D4B0D4A18600D4B0E481968116099680D4A116019690C4A1160A4
:203B40001A6A0C4B4FF400411A6002F027F8BDE808400021084800F03BBC00BFA84200206D
:203B6000AC420020405B0020CBC02000B4420020B0420020CC420020B440002038B5644CCA
:203B800007F0CAFAFEF7D6FC07F093FB00F094FB0021604800F01CFC00F084FAFEF7AEFEBF
:203BA00000F022F900F04CFCFEF790FB00F03AFF01F06AFA00F02AFA2368022B07DD564A74
:203BC0005649574801F0EAFF564801F0E7FF2368022B09DD5149504A514801F0DFFF524B81
:203BE0005248196801F0DAFF2368022B09DD4B49494A4B4801F0D2FF4D4B4E48196801F026
:203C0000CDFF2368022B09DD4449434A444801F0C5FF494B4948196801F0C0FF2368022BD1
:203C200009DD3E493C4A3E4801F0B8FF4AF6CD31434801F0B3FF2368022B08DD3749364A5A
:203C4000374801F0ABFF1A213E4801F0A7FF2368022B09DD3149304A314801F09FFF3A4BD3
:203C60003A48198801F09AFF2368022B07DD2A4A2A492B4801F092FF354801F08FFF236898
:203C8000022B02DD334800F091F82368022B02DD314801F083FF08222E49304807F0E4F8B5
:203CA00000212F4800F094FB4FF0FF3002F056FD23680546022B07DD174A1849184801F040
:203CC0006DFF284801F06AFF2368022B05DD0DB1A81C00E0284600F059F82368022B02DD6C
:203CE0001D4801F05BFFFEF717FBFFF717FF1E4807F0B1FAFEF708FE00F0F6FA0446FEF7DF
:203D000009FE14F0FF0FF7D107F010FAF4E700BFC4400020C8400020EFC0200031C02000FB
:203D200036C02000F4C02000C8BF200028C12000B8BF200037C120009CBF200042C120009C
:203D40004DC1200067C12000844D002087C1200094C12000C6640020C9C42000205D00208B
:203D6000B8410020A9C120001CC0200010B50446FEF710FC94E80C001344C01A024B9842B4
:203D80008CBF0020012010BDFEFFFF7F00B58BB002462821684604F0BFFE6946024801F085
:203DA000FDFE0BB05DF804FBCDC1200038B5054608B1002409E00948BDE8384001F0EEBE42
:203DC000E30702D4064801F0E9FE295D0548013401F0E4FE082CF3D138BD00BFE9C12000AC
:203DE000F8C12000FAC12000F8B500231A460B490B4D0C480026002745F823201A54013370
:203E0000052BE1E90267074CF6D123782BB9FEF7EFFB034B186001232370F8BD385B0020E2
:203E2000705B0020685B0020F8B50D4D0D4F0E4E0024E35D6BB1FEF7DBFB56F8243046F8CA
:203E40002400C11AD5E90023521843F10003C5E900230134052C05F10805EAD1F8BD00BF78
:203E6000405B0020685B0020705B002030B50649D1E90245D1E9002312196B41D1E9040111
:203E80008018594130BD00BF405B002010B50E4C236813B90D4A136010BDFEF771FB216892
:203EA00091E80C001A44131A8A6842B192E812002144091A8B4228BF0B469268F5E71844C2
:203EC000024B186010BD00BFD0420020D4420020014800F095BA00BFC84000202DE9F84369
:203EE0000388054633B1592B0BD0002303800320BDE8F883234A136059232B800120BDE8F3
:203F0000F883872924D08229F6D11E4F4FF00008B9463C680026002CEED0204607F0D2F981
:203F200098B122468821E06800F02AFA58B9E060A3680EB1B36001E0C9F80030C4F8088087
:203F4000FFF7A4FFE5E7FFF7C3FF2646A468E2E70C4900200B681BB90028CDD00B60CBE765
:203F6000DC68A24202D19B680120F4E700B10B6099680029C0D0C86882420ABF89680B4672
:203F80009960F5E7D042002010B50446FFF7A0FFE3680B4A4BB113683BB1A34203D1094A67
:203FA0001268DA6007E09B68F6E7064B1B68E36013681460A360BDE81040FFF767BF00BFAD
:203FC000D0420020DC420020024B1868003018BF01207047D042002010B50B4A04461368B4
:203FE000834206D18368136008E09A68944203D01346002BF9D103E0A2689A60FFF746FFC4
:204000000023A360E36010BDD0420020034A9179D379034A03EB012313807047C6640020A2
:20402000844D0020F8B50388064615462BB14A2B15D0002303800320F8BD174807F05DF950
:2040400004462CB1A168201D07F016F92468F8E7124B01221A704A2333800120F8BD8829D1
:20406000FBD10D4807F049F90446002CF3D0231D9D420ED12146084807F049F9084B6269A1
:204080001F681A60A2691D460AB1E06990472F60E1E72468E9E700BFD84200207154002045
:2040A000DC42002010B5064B002406481C7007F021F92146BDE81040034800F089B900BF05
:2040C00071540020D8420020D840002070B50446E3610B4B049D1B786561A26143B1094D39
:2040E000094B2E68201D2B6007F0C6F82E6000E0A1602146BDE87040044807F01BB900BF58
:2041000071540020DC420020D8400020D842002013B5034C24680094FFF7D8FF02B010BD87
:20412000DC42002070B5094B05461B783BB1084C084B26680430236007F0A7F82660294687
:20414000BDE87040044807F0F5B800BF71540020DC420020D8400020D842002010B5084BAE
:2041600004461B781BB10430FFF736FF01E0C36003612146BDE81040024807F0C8B800BFF3
:2041800071540020D842002010B50A4B04461B7823B1BDE81040043007F080B8064807F098
:2041A000ACF818B1A04203D00068FAE7012010BD002010BD71540020D842002038B58368C2
:2041C00004460D469BB10A4804600220A07304F10C0098470238012801D9832D05D1214601
:2041E0002046BDE8384000F005B80123A37338BDDC4200202DE9F8431C4A044615688946D5
:204200002B4690461A4E3768A34204D00BB11B68FAE7BDE8F88334B3A37BABB10023A373BD
:2042200045B1A54204D022468721284607F03BF82D68F5E7A3683BB14C4505D034602A4653
:20424000832104F10C009847D8F800309C4203D12268064B05E0134623B11A689442FAD118
:2042600022681A603760BDE8F88300BFE0420020DC420020002370B51D46094A012613709C
:20428000084A146854B1E37B33B1A673E573002282212046FFF792FF2468F3E770BD00BF94
:2042A00074540020E0420020024B1878421C1A70704700BF75540020064B8A221A70064AD9
:2042C00000231370054A1370054A1360054A1360704700BF755400207254002073540020B6
:2042E000E0420020DC4200202DE9F0411A4D2B780BB1FFF7BFFF194C22783AB3184E0C21FE
:204300003378184F5943781817F8018001334768806803F01F03013A3370227068B9124B01
:204320001E689EB12B780BB1FFF7A4FF30463A46414606F0B8FF3668F3E7B8F1810F04BF12
:20434000012383733A46414606F0ADFF2B7820781844BDE8F08100BF74540020735400205F
:2043600072540020E4420020E0420020024A034B10781B7818447047735400207454002038
:20438000F0B50B4E3378202B0FD00A4C0C252478094F1C4404F01F046C4301333D19A86017
:2043A00039556A6033700020F0BD0120F0BD00BF7354002072540020E442002038B5034C59
:2043C000256806F070FF256038BD00BFDC42002030B40A4C0A4625682B4683420CD00BB18F
:2043E0001B68FAE740B101210560817320608381812130BCFFF7E2BF30BC7047E04200205F
:2044000038B1837B013B012B9FBF024A0123C373137070477454002010B5084C206858B17D
:2044200000232360816843689847236823B1BDE810401868FEF7F2B810BD00BF644400209C
:2044400082B0074B02AA42F8043DCD21934202D203F8011BFAE70348002102B0FFF7B8BF97
:20446000E7640020E840002038B5FEF753FA0C4C0C4B22780B4DCD2A06D09C4207D2013400
:20448000F7E7AC4203D201342378CD2BF9D0FEF741FAAC423ABF0348001B4FF0FF3038BD0A
:2044A000E7640020E86C002070B5038805462BB1912B0BD000230380032070BD4FF4A06175
:2044C0001B4806F0D9FE91232B8003E0184806F0E5FE08B9012070BDFFF7C6FF154C164BA5
:2044E000061EA3EB040401DB002C0CDA134B1B68002B18DD124A1349134801F04FFB22465D
:20450000314612480DE0A6420DDD0C4B1B68002B09DD0B4A0B490C4801F040FB2246314618
:204520000B4801F03BFB024806F0AFFECBE700BF68440020E7640020E86C0020C4400020D4
:2045400096C220009CC2200036C02000A0C22000CAC220002DE9F04106880546772E31D05B
:204560007E2E40D0002E4ED12B4CFFF79DFE266026462A4B2A4FDFF8B0801870236857F8E1
:2045800023204AB1002108F80310936880209847336801333360F1E7224A1370772320E06C
:2045A000214AD256002A12DB1B4A136801331360194B1C4A1B6812789A42F1DC1B4B1B6861
:2045C000002BEBD0194A00231360134AEFE7144A002052F82320114B1978FFF7D1FE30B923
:2045E0007E232B8014E00D4B1B788B4210D10A4B0D491A688B5C03F07F038B540B4A1368AA
:2046000001331360D0E7002303800320BDE8F0810120BDE8F08100BF78440020E164002026
:204620009840002076540020DE6400207C440020054A136843F004031360044B1B68906914
:2046400043EA002080B2704700700D4014700D4010B5184A136823F00C031360164B0122DB
:204660001A601A68012AFCD1144B08221A60E322C3F8142203F505731946114A1368DB07C6
:20468000FCD5104C102000232268013802F0010243EA02034FEA43039BB2F5D1002BF1D032
:2046A000094A180A03F0FE0310601360EF230B6010BD00BF00700D40A8200D4024860840E1
:2046C000648608409C86084014700D4010B5044690F84C30084A013380F84C3080210346F6
:2046E0002030FFF715FD054B2246BDE8104019780020FFF745BE00BFCD462000E3640020B2
:2047000070B503880446BBB1D52B03D000230380032070BD822911D106F047FDBFF35F8F03
:20472000104B00221E681A60BFF35F8F06F041FD0D4D55F8040F18B9D5232380012070BDB4
:2047400090F8453026FA03F3DB07F2D5FFF71CFD0028EED02B68054A02211846FFF7D8FC7B
:20476000E7E700BF8C4400208C40002089472000034A1368184310600248FFF741BE00BF4F
:204780008C4400200841002070B50446FFF7FCFC20B304F120063046FFF7F6FC0546204666
:2047A00006F066FE01280CD1C5B1002523460C4A84F84C507E213046FFF7AAFC2246094BBA
:2047C00006E058B955B93046FFF7C8FC2246064B2846BDE870401978FFF7D2BD70BD00BF26
:2047E000CD462000E4640020E2640020F8B5FFF75BFD304B304D1870FFF756FD2F4B304CFE
:204800001870FFF751FD2F4B2F4F18700023AB602E4B01266B602168002943D091F84530F0
:20482000886C2B4AD90809030A44116803F0070306FA03F321EA030313602368254A93F85F
:204840004530D90809030A44116803F0070306FA03F321EA03031360236840F08C0193F8E5
:204860004500FEF77FF923681B4A93F84530D90809030A44116803F0070306FA03F30B43A1
:204880001360236893F84530DB0806FA03F33B6054F8043B93F8453006FA03F2AB681343BD
:2048A000AB60B8E70D48FFF793FDBDE8F840024800F09AB8E464002080440020E264002058
:2048C00090400020E364002000E100E07147200020940D4000940D4010940D4008410020AC
:2048E00070B505880446672D09D0792D32D0002D36D1FFF7D9FC1D4B18701D4B1D601C4D6A
:204900002E461C4806F0A4FD431C01D167231FE00A28174A09D00D2807D02B687E2BF0DCEE
:204920005A1C3260144AD054EBE713680025591C1160114A2846D5540C4B1978FFF720FDA8
:204940000E4B2A4685211868FFF71AFD20B97923238009E0852907D1054B00221A60CEE733
:2049600000230380032070BD012070BDE56400209044002094440020F8540020DC420020F4
:2049800038B50D4C01462378254633B90B4806F04CFD60B90123237009E00A2801D00D2815
:2049A00005D1064806F041FD08B100232B700448FFF726FD012038BDF7540020944400204A
:2049C0001841002008B505490548802206F026FDBDE8084000210348FFF7FABC775400205B
:2049E00094440020184100200146014806F0A2BC9C44002038B50546064806F07EFC044622
:204A00003CB1A068284002D0636803B198472468F6E738BD9C440020014806F06BBC00BF86
:204A20009C44002008B5044806F0A3FCBDE80840024806F09EBC00BF344100202841002074
:204A4000014806F0DDBC00BF2841002038B50E4806F09FFC0446A8B10C4806F09AFC054694
:204A6000206028B92146084806F0A7FC284638BD00F010FA05F19C01A5F8800005F1820000
:204A800000F094FA204638BD284100203441002010B501460446074806F0A4FC48B1216862
:204AA000054806F08AFC2146BDE81040014806F084BC10BD284100203441002010B501465B
:204AC0000446094806F08EFC68B12468B4F88010204600F055FA04F19C0104F18200BDE887
:204AE000104000F075BA10BD2841002030B1054B9B68C01A044B8010584370474FF0FF3044
:204B0000704700BF40410020ABAAAAAA38B50D4D002818BF05460C4806F0EFFB044668B1AD
:204B2000211D284606F006FD20B12046BDE83840FFF7DCBF204606F019FCEFE74FF0FF3036
:204B400038BD00BF24C02000C044002008B5024606F0B3FC4AB1431C09D0064B1B5C10685C
:204B600043FA00F000F0010008BD104608BD002008BD00BFA855002050B10368072B06D8FA
:204B8000044A52F823301B1A5842584170470020704700BF8445002010B50446FFF7ECFF9C
:204BA00008B1A1600AE0064A1368072B07D8581C1060044A2360A16042F82340012010BD34
:204BC000A445002084450020F8B505460C460F4E0C272146284606F070FC431C16BFB36883
:204BE000002007FB003006F0C1FBFFF77FFF0146284606F058FC044628B101462846FFF770
:204C0000A5FF0028E5D02046F8BD00BF4041002038B505460B4806F070FBFFF767FF014609
:204C2000284606F040FC044601462846FFF78EFF28B921462846BDE83840FFF7C5BF20469F
:204C400038BD00BFC04400202DE9F84F0D46904699460646002800F09E80504B002908BF0A
:204C60001D462846FFF752FF421C07464AD14C4F384606F08EFB0446002837D1494640462F
:204C800003F0FEFF002800F08680FFF73FFF431C4AD0BB680C2202FB0032424B195C002AAD
:204CA00042D0002975D01C5473E0002C57D0BB4255DB104606F05AFB0246002A3FD1002CE2
:204CC00069D0DFF8ECB000275BF82780B8F1000F49D10137082FF7D12046FFF707FF324B1F
:204CE00000221A542146314806F011FB21462F4806F020FB2046FFF7F9FE29460746201D07
:204D000006F015FC3946304606F0CDFB04467268002106F083F9012322463146224806F0BF
:204D2000D7FB2046BDE8F88F204806F0E6FA002402462746DFF86C90DFF86C80BDE7104668
:204D4000FFF7D4FE19F80030002BB2D118F800100029AAD0C80748BF01334910F8E7C3B123
:204D600014461F46A5E7D8F80890B9F1000FB0D02046FFF7BBFE0146404606F094FB014699
:204D800082464046FFF7E2FE0128A2D15046C8479FE7144695E70020BDE8F88F24C0200002
:204DA0004041002088550020A8550020C04400208445002070B50A4604460D4600230146AF
:204DC000054806F085FB064600232A462146034806F07EFB304670BDA85500208855002053
:204DE0000A4601230146014806F072BB885500200A4600230146014806F06ABB8855002074
:204E000008B506F05AFB431C07D0054B0C229B6802FB003010B1043008BD002008BD00BF48
:204E20004041002010B507490B88834208DB064C80B222880244181A08802280012010BDC3
:204E4000002010BDE6520020E8520020014B1880704700BFE652002000487047A8450020F5
:204E6000014B1888704700BFE6520020034A044B10781B781844C0B2704700BFB855002050
:204E8000E852002008B5FFF7F1FF014B184408BDA845002070B50D4D0D4C2A78238806462A
:204EA0001344802B0FDC0B4905F0DEFF2B781E44FFF7E8FF22880146304605F0D5FF28782D
:204EC0002388184470BD002070BD00BFB8550020E6520020A845002008B5FFF7C7FF024B3A
:204EE0001B88184480B208BDE652002038B50146FFF7F2FF4318802B11DC0A4A013880B297
:204F0000541803B2002B04DBD55C0138E55480B2F7E7054B01201A781144197038BD0020BD
:204F200038BD00BFA8450020B855002038B5094D094C1A220021094806F070F8294620460A
:204F400006F0F5FA294604F10800BDE8384006F0EEBA00BF24C020009C640020AC64002032
:204F6000044A00231380044A1380044A1370FFF7DDBF00BFE8520020E6520020B85500204B
:204F800038B50C460546FFF7EBFF802C28BF802422462946034805F067FF034B20461C80A3
:204FA00038BD00BFA8450020E652002010B50C461A22054905F058FF2046BDE8104010225E
:204FC000024905F051BF00BFAC6400209C64002010B50C461A220146044805F045FF2146EC
:204FE000BDE810401022024805F03EBFAC6400209C640020024B23F810100120704700BFDF
:20500000AC640020014B33F810007047AC64002008B5044B0D3803EBC00006F088FA01205A
:2050200008BD00BF9C640020024B0D3803EBC000704700BF9C6400200149024806F07ABA38
:2050400024C02000A464002070B505460D480E4606F053F9044698B1012D08D1A3681BB950
:20506000204606F083F9F5E73046984705E0002DF6D16368002BF3D098470028F0D070BDA1
:2050800070BD00BF28460020054B10B51B689847044B5B689847BDE81040034B5B681847C9
:2050A000C8BE20009CBF2000B8BF2000084808B5FFF738F80748FFF7ABFD38B1037A01466B
:2050C0005B0803720348FFF77FFDF6E708BD00BF845B00204C4100200146014806F014BADA
:2050E0004C410020F8B531F0020307460E4615462FD10146174806F007FA044650B90346FB
:20510000092239461348FFF79FFD044608B306F02BFAA080FDF734FA237A20602B44102BCF
:20512000A8BF10232372022E204608BF0C3506F009FAED01002814BF0A221922ADB2554362
:20514000A388C2F1640101FB03556423B5FBF3F5A580F8BD4C41002038B505460420FFF7C0
:2051600051FF294684B20F4806F0CEF9034658B9092229460B48FFF767FD024680B1C480C8
:2051800006F0F2F9908038BD0A2224B25443B0F906105A2202FB0142642192FBF1F2C280DE
:2051A00038BD00BF4C41002010B50748FFF730FD044640B121460448FFF7FCFD21460248C9
:2051C000FFF702FDF4E710BD4C41002010B500210548FFF7E1FCBDE810400023034A4FF4D7
:2051E000E1310348FEF794BF4C410020AD502000845B0020F8B5FDF7C3F904460F4F002517
:205200000D2007EB0516FFF70FFF314606F092F978B10720FFF7F6FE337B834201D00020BA
:20522000F8BDB068201AB0F5206F8CBF00200120F8BD0135102DE3D1F1E700BFEC460020E2
:2052400070B5164E00240D20FFF7EEFE06EB041106F070F9114D611C10B910290C46F2D13B
:205260004C1E05EB0111A1F110063CB120391022304605F0F9FD013C3146F4E70720FFF795
:20528000C1FE2873FDF77CF9A8600D20FFF7CCFEBDE870400146014806F049B9EC46002027
:2052A00030B591B0054600F063F84FF6FF73984202D14FF0FF3052E040220021684605F008
:2052C000ADFE284B1A782AB901221A70FFF7B0F9254B18707DB10720FFF794FE58B9224C9B
:2052E00023780BB90123237021780720FFF782FE237801332370FFF79FFE6A46C1B21B48E7
:2053000006F0A8F9FFF798FE28B1FF238DF800308DF8013006E00E20FFF786FE0146684681
:2053200006F005F90D20FFF77FFE014602A806F0FEF8FFF7A7FD0E90FFF792FD0F906846F2
:2053400006F074FA04464DB1FFF7D0FD0028B0D0FFF782FD0146684606F0B1FA204611B004
:2053600030BD00BFBA550020B955002005502000014B1888704700BF5C4200202DE9F04148
:20538000012986B006460F46144640F3838003A906F0DFFA0A2203A904F1100005F064FDCE
:2053A0009DF811300BB1B51C02E0B378F51CA37602AA01A903A806F095F99DF81380B8F1FD
:2053C000000F23D0029B23B16A7815F8023B03EB0223B8F1020FA38309D13049204606F08C
:2053E000A6F86B78237015F8023B637014E0B8F1030F11D105F108021346611E13F8010DFA
:20540000AB4201F8010FF9D1154605E02349204606F08DF8A4F81C809DF81580B8F1000F25
:205420002BD0019B53B16A7815F8023B03EB0223029A9BB2E3831AB9A38301E0A38BE383D5
:20544000B8F1020F0AD1154904F1080006F06FF86B78237215F8023B637215E0B8F1030FB8
:2054600012D105F108021346E11D13F8010D9D4201F8010FF9D1154606E0084904F1080098
:2054800006F055F8A4F81E80A81B3B1A8742E363A56300DA002006B0BDE8F08124C0200096
:2054A00070B505460C46102C07D92B68102208496868984750B9103CF5E734B12B68224638
:2054C00068680349BDE870401847204670BD00BF1AC320002DE9F04F064615468FB00691DB
:2054E0004FF0000B069B1B78CBB1069C274617F8013B1BB1252B14D03C46F7E7069BA34272
:205500000DD0069B0699C3EB04084246336870689847002840F01F832378C34423B95846C4
:2055200034E3069BA342ECD16378002BF7D039460024084610F8013B0A462B2B11D006D8AA
:20554000202B11D0232B12D144F0080416E02D2B04D0302B0BD144F010040FE044F00104E5
:205560000CE044F0060409E044F0020406E0A3F13107082F11D84FF0000801E00146D8E7DE
:205580000A4611F8013BA3F13000092813D80A2202FB0838A8F13008F2E72A2B09D12B68C1
:2055A0000246002B05F10405B8BF44F00104984601E04FF0000813782E2B1AD15178531CBC
:2055C000A1F1300009280ED8194600270A780B46A2F13000092801F101010DD80A2303FBA1
:2055E0000727303FF2E72A2904D12F68931C043502E013464FF0FF371A786C2A09D15A780A
:205600006C2A02D144F080040AE0013344F060040BE0682A09D15A78682A03D144F02004CC
:20562000023302E0013344F040041A78642A3CD01FD8462A48D00DD8252A5AD003D8002A99
:205640003FF46DAF57E0412A4AD0452A53D144F4424450E0582A31D004D8472A4BD144F49A
:20566000A13448E0612A38D0632A44D144F4A06441E06E2A3AD007D8662A22D027D3672A0D
:2056800028D0692A11D036E0732A2CD006D86F2A11D0702A2FD144F440742CE0752A07D08F
:2056A000782A28D144F4C85425E044F4245422E044F410641FE044F488541CE044F4B2445B
:2056C00019E044F4007416E044F4844413E044F4024410E044F481340DE044F4C1340AE0DD
:2056E00044F4E13407E044F4806404E044F4E06401E044F4C0640133069304F4E063B3F50D
:20570000806F00F08F8113D8B3F5807F27D0B3F5407F7FF4E7AEAE4B14F4804FAD4A18BF04
:205720001A460DF133032868002104351F46B5E1B3F5C06F08D0B3F5E06F00F02282B3F50E
:20574000A06F7FF4CFAEF2E133680122A24970689847002840F0FF810BF1010BC2E6002F60
:20576000ACBF24F01004012714F40053079304F0E0032ED0402B12D005D8ABB1202B21D1E1
:2057800095F900200DE0602B0ED0802B1AD1073525F0070303F10805D3E9002307E0B5F99F
:2057A0000020D317043502E02A680435D317002A73F1000108DA524263EB4303CDE900239D
:2057C000012304E000220023CDE900230023059329E0402B13D004D8BBB1202B1DD12A786E
:2057E0000EE0602B11D0802B17D1073525F0070303F10805D3E90023CDE900230BE02A880B
:205800000023CDE90023043505E02B6800221946CDE900120435079BD9E70023059300221A
:205820000023CDE9002304F4C053B3F5805F0CD0B3F5C05F33D0B3F5006F4FD1DDE9002314
:205840000DF13609CDE9022304E0DDE900230DF1360915E0DDE9022313433AD0DDE902011D
:205860000A22002305F03EF9DDE90201303209F8012D00230A2205F035F9CDE90201E9E758
:2058800052EA030125D002F00701303109F8011DD10841EA4371D8080A460346F0E74C4BBA
:2058A00014F4804F0DF136094A4918BF1946DDE9002352EA03000CD002F00F00085C4FEA69
:2058C000131E09F8010D100940EA037002467346EFE70DF13603C9EB030302E00DF13609EB
:2058E00000230293029B41F60802BB4238BFFF1A41F2080302EA040228BF00279A4202D118
:20590000002F08BF012741F60801029B8A4203EB07000DD1DDE90023134309D02F4A3049E3
:2059200014F4804F4FF0020A0CBF0B46134602E04FF0000A5346079A9AB1059A52B904F082
:205940000602022A0AD0062A264A04BF4FF0010A134606E04FF0010A234B02E0234B4FF006
:20596000010A0AEB000290458CBFC2EB08084FF0000814F0010200920DD1E10602D5474441
:20598000904608E0414630460593FFF789FD059B002840F0E080BAF1000F07D0346852461B
:2059A00019467068A047002840F0D580029B03EB0B04BB46BBF1100F33681BD910220C49A0
:2059C00070689847002840F0C680ABF1100BF1E72AC320003BC320005DC320004FC3200046
:2059E0004CC3200054C3200052C32000CBC120005FC32000BBF1000F06D05A466549706867
:205A00009847002840F0A7803368029A4946706854449847002840F09E80009B3C44002B57
:205A200039D032E0D5F800900435B9F1000F0AD0CA469AF800300AF101020BB19246F8E7DF
:205A4000C9EB0A0A03E0DFF850914FF0060A002F02DBBA4528BFBA46D0458CBFCAEB08087D
:205A60004FF0000814F0010705D141463046FFF717FD00286FD13368524649467068984715
:205A8000002868D10AEB0B042FB141463046FFF707FD00285FD108EB040B23E550EA010E1F
:205AA0000ED000F00F0E12F80EE04FEA111C03F801ED4FEA101E4EEA017E70466146EDE765
:205AC000FF1A02BF3022012703F8012C07F1030708BF03F1FF337822B84503F8012C4FF05D
:205AE000300203F8022C88BFC7EB08084FF0230298BF4FF0000814F00104A3F1030903F89C
:205B0000032C04D141463046FFF7CAFC18BB33683A46494670689847E8B95F4424B14146F4
:205B20003046FFF7BDFCB0B908EB070BDAE4B8F1010F2B688CBF08F1FF384FF0000814F002
:205B4000010405F104058DF8203008D141463046FFF7A6FC10B14FF0FF3017E0C344336836
:205B6000012208A9706898470028F4D108F101072CB141463046FFF793FC0028EBD1BB446A
:205B8000B0E42B680435C3F800B0ABE40FB0BDE8F08F00BF5FC3200056C320000FB407B50F
:205BA00004AA52F8041B04480192FFF793FC03B05DF804EB04B070475C4100201FB514461D
:205BC000074A8DE80300029221461A4602A8CDF80CD0FFF77FFC009B00221A7004B010BD1D
:205BE000C9B9200010B501210C20FFF703FABDE81040014B5B68184790BF2000014B9B68DC
:205C0000184700BF90BF2000014B1B6A184700BFC8BE2000014B5B6A184700BFC8BE20008D
:205C20000C4B13B51B6898470B4B044601A918209B6A984701280AD0002C0198B8BF152405
:205C40008028D4BFC4EB0000C4F1800000E0002002B010BD90BF2000C8BE200007B5064B84
:205C600001A918209B6A984718B900F009FAFFF7CBFF03B05DF804FBC8BE200007B5FFF77B
:205C8000EFF8032823D0FFF7B9FF00281FDB0E20FFF7CAF90F4905F04DFC38B10D20FFF7A6
:205CA000C3F90C4905F046FC88B904E0FFF7C4F90028F3D10BE0FFF79DFA40B9FFF7C0FAB7
:205CC000054B9B68019303B05DF804EB184703B05DF804FBC6640020B8BF200070B590F8F2
:205CE0002D400122012CD4BF03340524054602FA04F4FEF79DFC013CB0FBF4F12B4601FBED
:205D00001401034A05F10C00BDE87040FEF700BA995D20002DE9F0470D4614468B68804652
:205D200093E8C000506B92F82C9005F0F0FA6868FEF7AEFEA968144805F03FFB2946134871
:205D400005F03BFB606B05F0D8FA40B1002384F82C3084F82D302046FFF7C0FF0BE004F1C6
:205D60000C00FEF7FBF92146094805F0D0FA2146084805F022FB4B46424639463046BDE83B
:205D8000F04705F011BC00BF64410020704100204C4800207C4100202DE9FF470446002856
:205DA00000F0C880406B05F0A8FA0546002800F0C1804068FEF782FE60490D20FFF728F9BB
:205DC00001210820FFF716F9FFF70CFF0028C0F2AF80FFF741F85A4E90F802907768FFF7A4
:205DE0003BF88046FFF778F801464046B847FFF723F9D6F818A00746D04700284FD15FB124
:205E0000B3680193FFF768F8019B984748B102280CBF0120042043E0F369984700283ED13A
:205E2000EEE70FB100203BE0FCF7E2FB6FF00C08F769C0EB0808B84710B1D04740B905E07F
:205E4000FCF7D6FB18EB000FF5D4F6E7B84730B1FCF7CEFB6FF01408C0EB080809E073692F
:205E600098470028F4D009E0FCF7C2FB18EB000F02D5B8470028F7D0B84708B902200FE016
:205E80003369032103A89847032808D19DF80E00B0EB090018BF01200028C3D000E00120B9
:205EA000AA68002A46D003283DD8DFE800F0021B0B4394F82C300020013384F82D0084F8CD
:205EC0002C3030E0002384F82D3094F82C300133DBB284F82C30127A9A421DD822462946A5
:205EE000022022E094F82D300133DBB2052B83BF002384F82D3094F82C3084F82D3084BF62
:205F0000013384F82C3094F82C10137A994203D322462946012008E02046FFF7DFFE686886
:205F200005F0BBFA06E022462946FFF7F3FE01E00520B5E704B0BDE8F08700BFC664002098
:205F4000C8BE20002DE9F04107460E208846FFF76BF8454B05461A78444C22B901221A702D
:205F6000FEF766FB2070237813B9404B01221A70217807204B1C2370FFF73CF801210C206A
:205F8000FFF738F83A4805F0B8F9044640B12946201D05F0CFFAD8B9204605F0E7F9F4E767
:205FA000344805F0F6F9044640B32946201D05F0BEFA002304F13000606384F82C3084F88C
:205FC0002D30236305F096F92146294805F0B2F9606B05F0C4F9072810DC274805F0D9F914
:205FE000054698B9606B05F0BAF938B92146204805F08DF921461F4805F0DFF941463846B7
:20600000BDE8F0410123042205F0CEBA1B4805F0C0F9A86008B3FEF719FD6860C8B106209D
:20602000AE68FEF7EFFFC0B208B1307201E00823337286E880012946606B05F07BF9606B8C
:2060400005F05BF985420DD12046BDE8F041FFF745BEA968094805F0B0F92946064805F06B
:20606000ACF9BFE7BDE8F081CE550020C35500204C4800207C41002070410020644100201D
:2060800008B5054805F075F9044805F072F9BDE80840034805F06DB97041002064410020FE
:2060A0007C41002010B5094A11880B18B3F5A06F0AD8074C2388C34206D480B203440844F4
:2060C00010802380012010BD002010BD185D002032530020B0F5A06F9DBF024B1880012062
:2060E00000207047185D002005289ABF024B33F810000020704700BFEA5200200C220249BB
:20610000024804F0B1BE00BFF6520020EA520020044A00231380044A1380044A1370FFF7A3
:20612000EDBF00BF185D002032530020E255002010B5064C0C220021204604F06FFF002312
:2061400023814FF6FF73238010BD00BFF65200202DE9FF47154D6C4605F108030FCB95F875
:2061600007808DE80F0000F02BFF114805F0C5F80646DFF84090DFF840A08EB1776857B11F
:20618000B9F80030BAF800202C3B2C329BB22A4441462046B847304605F0E8F80646ECE776
:2061A000FFF7B6FF04B0BDE8F08700BF285D002020490020185D002032530020F8B5204B25
:2061C000204E1B7906F11805F371337E06F10804FF2B08D194E80F0085E80F0029462046B2
:2061E00000F0AAFB1BE02746AE46174A3B4603CB7345106051601F4602F10802F6D195E87F
:206200000F0084E80F00104B104C03F11005224618685968083303C2AB421446F7D100F08C
:20622000CFFE0B4B81221B882833F418F25400236370638005F0EEFCC0436080F8BD00BF39
:20624000AC5B0020285D002002530020405D00203253002038B504460B480D4605F04DF884
:2062600050B10379A34204D143799D4206D0FF2B04D005F07BF8F3E7012038BD8368002B0A
:20628000FAD09847002038BD244900200146014805F050B8244900202DE9F74F444B8146E7
:2062A0001B7888463A2B92460AD1424B1A88424BD356002B04DB03B0BDE8F04FFFF728BF02
:2062C0003E4C238973B9638963B9A38953B9E38943B9238A33B9638A23B9A38A13B9E38AEC
:2062E000002BE8D0237AFF2BE5D0354B354D1B6B9847354A2F46934605F110062B4603CBC0
:20630000B342106051601D4602F10802F6D12F4E2A493288274D303292B2B2F5A06F28BFDF
:206320004FF4A0620023328001F13000303A2B80019304F00FFE019B6022637063803A2346
:20634000A371234B22701B79E371224B0FCB87E80F009BF80030FF2B05D1B9F1040FAAD181
:20636000B8F1020FA7D118491A4800F0E5FA2F88504607F12803E21804F8039082F8018065
:2063800005F04EFC3188144B2839D85189B2A3F12C0005F042FB2B8828331C44002363807B
:2063A00005F038FCC043608003B0BDE8F08F00BFE255002032530020505D0020285D0020CD
:2063C000C8BF2000405D002002530020185D0020AC5B0020305D0020545D00202DE9F0475D
:2063E000824689469046184C602222703A22A271164A9DB21279291D002704F11806204629
:2064000089B2E2716770678005F007FB10225146304604F029FD314604F1080000F08CFAF6
:206420000B4B2C351B8828331E1903F8049086F80180778005F0EEFBC043064B70801D802C
:20644000BDE8F04700F030BC285D0020AC5B002032530020185D002008B50448FFF716FF6A
:20646000BDE808400248FFF711BF00BF88410020944100201FB50C46074B01469B69684611
:20648000984710222146684604F0BCFCB0FA80F0400904B010BD00BFC8BF200070B506466F
:2064A0000A480D4604F029FF044668B11DB9204604F05CFFF8E7A3689E42F8D129462046C5
:2064C000FFF7D8FF0028F2D0204670BDAC4A002030B505460C460E4B85B05B6968469847FB
:2064E00021462846FFF7DAFF694604462846FFF7D5FF11232CB1844205D0013B03D064693F
:20650000F8E7204602E0031B5842584105B030BDC8BF20002DE9F843904606460F46994613
:20652000FFF7BCFF414604463046FFF7B7FF0546B8F1000F0CD058B902464FF0FF33414687
:206540003046FFF7E7FF054610B90020BDE8F8837CB9164804F01DFF04460028F5D0002398
:2065600043610146124804F0E5FE124A1368013313600822B918A660C4F8049004F10C002F
:2065800004F072FC39463046FFF7A2FF50B1D4F81480394665613046FFF79AFF18B9C4F8D5
:2065A000148000E065612046BDE8F883A0410020AC4A00202849002008B5054B00220548F7
:2065C0001A6004F0D6FEBDE80840034804F092BE28490020A0410020AC4A0020F8B505465D
:2065E000154804F08AFE0446144E24B3204604F0BDFE63680746ABB90F4804F07EFE28B10E
:2066000043699C4202D004F0B1FEF8E721460A4804F07DFE21460A4804F0CFFE3368013B23
:20662000336006E05A1C04D0AB428CBF5B1B002363603C46D9E7F8BDAC4A00202849002065
:20664000A041002070B50C4804F057FE04460B4D84B1204604F08AFE06462146064804F0C9
:2066600056FE2146064804F0A8FE2B683446013B2B60EDE770BD00BFAC4A0020284900203C
:20668000A041002000487047125300202DE9F341154D009104460E4690461F460195034680
:2066A00020220321114805F033FA01282B4616D12A6804F11001107020462A68023250F8EC
:2066C000044B884242F8044BF9D11868089B86744361099B80F813800777836100E000207C
:2066E00002B0BDE8F08100BFB44A0020A85C002070B506460C4B0D4C03F16005236020684C
:20670000A8420FD203781BB9236820332360F6E7827C3146D208023004F074FB0028F3D151
:20672000012070BD002070BDA85C0020B44A002013B5084C802300930194034620220321E6
:20674000054805F0E5F908B9206800E0002002B010BD00BFB84A0020C45B002030B548F212
:20676000FE040C4B0C4A03F16001136013688B420CD21D783DB1451C02D09D7C854202D113
:206780005D88A54203D020331360EFE70023184630BD00BFC45B0020B84A002037B5104DE7
:2067A00080230093044603460195122205210D4805F0AEF901282B460ED12A6804F110011E
:2067C000107020462A68023250F8044B884242F8044BF9D1186800E0002003B030BD00BF7A
:2067E000B04A0020485C0020F7B5214C80230093054603460E4617460194202203211D48C7
:2068000005F086F9012830D12A46236805F1100118702368023352F8040B8A4243F8040B21
:20682000F9D12068C77416B90123037505E0002303753146183004F018FD23680E48012115
:20684000997402234370FF220023027043808380C38003818372C17202736B7B4373EB8963
:20686000C381FFF79BFF206800E0002003B0F0BDB84A0020C45B00202253002013B5084C4A
:20688000802300930194034612220521054805F03FF908B9206800E0002002B010BD00BF89
:2068A000B04A0020485C002038B50546C8B10D48022200244270FF230122C27244808480B9
:2068C000C4800481847203730370EB7B43732B8AC381FFF7D3FF044A106008B105F040F98E
:2068E0002C7038BD22530020B04A002070B50F4C0F4B2646236003F160052068A8420ED2E4
:20690000037843B1037D33B91830FDF72FFA10B13068FFF7C9FF236820332360EDE700F0FB
:2069200083F9BDE87040034804F0AFBCB84A0020C45B0020085D00202DE9F84F48F2FE035E
:206940000A8805469A420F4623D00A78FF2A20D01C490024A04689469B461B4A0A6002F1BA
:20696000600AD9F80060564517D233786BB1B37C012B0AD173885B4507D0B11C384605F049
:2069800009F980459CBF344680462036C9F80060E7E70120FFF7E2FE04464CB92C806C8072
:2069A000AC80EC802C816C81AC81EC81BDE8F88FA31C123453F8042BA34245F8042BF9D145
:2069C000BDE8F88FB84A0020C45B002070B5094EB0684508FDF72CFE0446FDF729FE2402A0
:2069E000B268A4B22044B0FBF2F302FB1300284470BD00BFAC5B002073B53D4B1A88B2B9E7
:206A00005A88A2B99A8892B9DA8882B91A8972B95A8962B99A8952B9DA8942B9FD21198020
:206A20005A809A80DA801A815A819A81DA81314C00F03AFD00F06CF8602200212E4804F017
:206A4000EDFA0021F822204604F0E8FA2B4B20221A702B4B18221A704FF4A06323604EF64F
:206A6000602340262671A360FFF7B0FF4FF47A73236148F2FE03314640F2FF260025E060CC
:206A80002575204C2A46238065802B46A580E580204601950095FFF7F9FD20461A4905F0C2
:206AA00063F8294601222046FFF79EFE4FF480732046E38126806580A580E5802581658150
:206AC000A581FFF76BFE4FF40073204626806580A580E58025816581A581E381FFF75EFE98
:206AE0000A484FF4F05102B0BDE8704004F0C4BB12530020AC5B0020A85C0020A55C002055
:206B0000A45C002022530020205D0020085D002008B5044804F02DFCBDE80840024804F04D
:206B2000E9BB00BFAC410020FC4A002038B505460A4804F0E2FB044678B1AC4209D1214682
:206B4000064804F0E4FB2146BDE83840044804F034BC204604F00AFCEDE738BDFC4A0020D1
:206B6000AC41002038B5054608B9002038BD094804F0C3FB04460028F7D010222946201DE0
:206B800004F040F918B1204604F0F0FBF2E7204638BD00BFFC4A0020F8B50E46054608B954
:206BA0000020F8BDFFF7DEFF044648B9104804F0F0FB04460028F3D001460E4804F0C7FB23
:206BC0002B46251D03F110072A4618685968083303C2BB421546F7D136B1314604F11400BF
:206BE00004F043FB002300E0012323772046F8BDAC410020FC4A002038B50A4804F07DFB69
:206C0000044600255CB1251D284605F012F808B1437C23B9204604F0A9FB0446F2E7284666
:206C200038BD00BFFC4A002010B50A4804F065FB044670B1237F43B904F11400FDF796F83B
:206C400018B12046FFF772FFEFE7204604F08EFBEEE710BDFC4A002013B504460146012063
:206C6000FEF7F2F938B92046054BDB68019302B0BDE810401847FFF74BFA002002B010BDD6
:206C8000B8BF2000002108B50846FEF7DDF9024618B902210348FDF791FBBDE80840FFF77C
:206CA00037BA00BFB841002030B5344B89B01B88002B60D0B3F5A06F3CD8314C238B6BB956
:206CC000638B5BB9A38B4BB9E38B3BB9238C2BB9638C1BB9A38C0BB9E38C5BB3294D6B6B0C
:206CE000984738B3237EFF2B21D02748FFF720FD10B100F04BF83EE02B6C04A89847E0B9BF
:206D00002148FFF7F5FC90BB1F4804F064FF044618B9FFF771FF68B12BE004F05AFF40BB2D
:206D20002046EB6C9847204604F057FF02E00020FFF792FFFFF7ECF91DE004AC204604F09C
:206D400078FF054678B9214602A804F018FF0623019500932A46012302A9204600F0B2FB90
:206D600005460028E6D0284600F0CCFBE0E7064CE4E70446E2E709B030BD00BF185D0020D4
:206D8000285D0020C8BF2000405D002010B5064C238843B1012000F047F923881BB1BDE8C7
:206DA0001040FFF781BF10BD185D002038B504462388104633B1B3F5507F15D000232380AD
:206DC000032038BDFDF770FA214B40211870214804F052FA00F0D8F81F4B5B6898474FF430
:206DE00050732380012038BD022902D1FFF7CEFFF5E70BD80129F2D10028F0D0174B1860E8
:206E0000052000F011F9FFF74FFFE8E787290CD1134B002103F580729D692033A84208BF40
:206E200023F8101C9342F7D3D9E78829D7D1094B984202D104F032FAD1E70A4B9842CED1AC
:206E400004F02CFA0028CAD0FFF750FDDBE700BFE6640020004B0020C8BF20002C62002068
:206E60003C620020085D0020074B1B680BB1283302E0064B1B681833186820B15A68044B80
:206E80001978FDF79BBA7047346200202C620020E664002073B5124D0646284604F0C1FDA0
:206EA000104B20221C8805F10801001B80B2ADF80600BDF80600304480B204F08FFEBDF803
:206EC000062004F1280192B2294404F087FE10B140BA80B201E04FF6FF7002B070BD00BF24
:206EE000285D002032530020F8B5064645781B4FED0008350221481CA8422ADA7218547833
:206F000002340C44A5421ADB735C012B1FD002D3632B02D006E081B2EDE73046BB6B984788
:206F2000A8B918E003F0C003802B08D0C02B02D0402B0CD10FE00A4B1B7EFF2B0BD0084B85
:206F40000221D21A0420FFF7A7F90220F8BDA1B2D1E70020F8BD0120F8BD00BFC8BF200075
:206F6000285D002008B5074AD379012B06D8002211460320FFF790F9002008BD013BD37188
:206F8000012008BD285D002008B5FFF7D1F8FFF733FDFFF761FA00F001FC074B4FF480620F
:206FA0001A800023194605481A182033B3F5807F1182F9D108BD00BF345300203C620020F6
:206FC00070B5154C238823B3144E03F127013288914203DBFFF79CF800241BE01049114D61
:206FE0000978283AA97103F12801D21A294405F1280003F0AFFF2088404200B2FFF752F843
:20700000044638B131882846283989B204F005FD00E00124204670BD32530020185D0020B2
:20702000E2550020285D002004282DE9F74F00F0B9819B499B4C9C4A05280C6014608B4613
:2070400013D19A4B1B681B8A002B00F0F2810C3C1460974A002313809648974A03601380A9
:20706000964B08220C601A709AE1934D2B88272B40F2DF8114F83C3C3C3C03F0F003602BB0
:2070800040F0D781204604F0CCFC2B888342C0F0D081204604F0C5FC283081B2B1F5A06F72
:2070A000298000F2C681864A00232046137004F0E5FC002800F0BD81227A824B04F1280958
:2070C000C9EB0000FF2A1880984600F0B28101230DF107022988204604F0A9FC50B19DF8C9
:2070E00007303BB9FFF700FF012800F0A281022800F09B817448FFF71BFB002863D1724820
:20710000FFF7BCFB00285ED1207E704BFF2834D048F2FE011A8B8A422FD01A898A422CD0D3
:2071200072B95A8962B99A8952B9DA8942B91B8A33B9628A654B1AB99A8A0AB9DB8AE3B1BA
:20714000228B624B7AB95A8B6AB99A8B5AB9DA8B4AB91A8C3AB95A8C2AB99A8C1AB9DB8C38
:20716000B3F5807F09D02B88B3F5A06F40F269814FF4A06200210220B1E048F2FE0322890A
:207180009A4240F05681228B504B82B95A8B72B99A8B62B9DA8B52B91A8C42B95A8C32B957
:2071A0009A8C22B9DB8CB3F5807F00F04281FF2800F03F814448FFF79BFA0246002840F07F
:2071C00038810221DAE0424F00233B700DF10702012329883D4804F02AFCBA460646002EC5
:2071E0007AD09DF80730062B76D0112B09D1FFF7E7FEB8F800304B44DB88002B00F08A801A
:2072000081E03A2B44D02C2B00F0138103D843B12B2B23D060E03B2B00F00B813C2B06D042
:207220005AE03B78DA0757D443F001030AE03B78980705D559064FD443F040033B7003E082
:2072400043F002038AF800303046FFF74DFE012800F0EF80022800F0E8800DE03B785A0782
:207260003AD443F004038AF80030F37823B1194BDB6B984780B376E72B88311B591A3046D4
:2072800000230DF1070289B204F0D1FB0646A6E704F0C0FC4FF6FF73984240F0CA8021E034
:2072A00030620020645D00201C5D00202C6200203862002034620020185D00202862002045
:2072C000E255002032530020405D0020285D0020E1550020C8BF2000321B01210420FEF7CB
:2072E000DBFFA2E0B8F800302833E2185178E05CFEF7B0FF012801D1FEF70AFF2B88002B7D
:2073000000F0978091E004F088FC4FF6FF73984240F08F80B8F800309944B9F80230002BE2
:2073200000F087804A4F4B4E376007F5807704E00A8A32B93368203333603168B942F7D358
:207340001AE0B8F800302833E01840889042F1D14A8A12B1E35A9342ECD10B682BB94B6834
:207360001BB98B680BB9CB6853B110223A4803F049FD0028DED103E0002204210120AEE7A7
:207380002B883649303B2B8000230B6034490220344A08703449CBF800200A60334A1380A8
:2073A000FFF762FD314E3188002942D0304C01F13002304B083189B220461A8004F02DFB5A
:2073C00060232370234B2C4F18683A88037D2832E3711123A37133881119083300255BBA9C
:2073E0008B80CD80038A65701353438A04F118064B800FC886E80F00314604F10800FFF704
:207400009BFA1E4B04F13C021A603E8804F005FCC0433B88283626442833F0802344DA88E4
:2074200012B94FF6FF72DA8065800D4B00221A700AE0FEF76DFE124A00231370084A137067
:2074400002E0FFF78FFDF0E703B0BDE8F08F00BF3C6200202C620020305D0020346200208C
:2074600028620020585D00201C5D002038620020285D0020185D00203253002030620020A9
:20748000E155002010B5044640B1054B9B6C98472146BDE810400348FDF78CBC10BD00BFF1
:2074A000C8BF2000C841002008B5FDF78FFEBDE8084002490248FDF76FBB00BF8574200046
:2074C000C841002070B504461E469DF81020059B0A48FDF7B9FB054670B120462B4604F119
:2074E000100250F8041B904243F8041BF9D1044B6E7428469B6C9847284670BDC8410020D4
:20750000C8BF200001460148FDF77ABCC84100200148FDF77DBB00BFC841002001460148F4
:20752000FDF752BBC84100200146014803F0ECBFC84100202DE9F04F8E4C85B0E379FF2BE0
:2075400040F013818C4E04F12C0332889946D1180979FF2900F00981224492F82920002A60
:2075600040F00381854B25469846854F1A60DFF824A214223A7032883B7802F12C00BAF835
:2075800000E0C11871455CDA13442C33E2185278002A00F0EA80E35C012B49D12B892944A2
:2075A000C8F800107BB96B896BB9AB895BB9EB894BB92B8A3BB96B8A2BB9AB8A1BB9E38AF7
:2075C000002B00F0D28008220DEB0200023103F04BFC6C4804F02DFBDFF8BCB10246CBF88E
:2075E000000040B905230190009302A902236548FFF768FF1CE0FFF785FF0146002800F097
:20760000B480D8F800000822023003F0FBFB48B102A9584604F023FB0028C0F2A680DBF8FA
:20762000003003E0DBF800305A7C0AB902225A743A78338813444B445B7802EBC3023A7027
:2076400099E720440430FFF773F84F4B494D18609846002800F089802B8973B96B8963B91A
:20766000AB8953B9EB8943B92B8A33B96B8A23B9AB8A13B9EB8A002B77D0424D2846FFF70D
:2076800057F82F46002870D140F2FF22218B05F1100E914219D16A8ABAB9AA8AAAB9EA8A7B
:2076A0009AB92A8B8AB96A8BB2F5807F0DD12B7FFF2B0AD195E80F008EE80F0033884B44FC
:2076C00004330FCB85E80F0011E0304D2846FFF72FF8D8F80030834247D197E80F0085E84C
:2076E0000F0033884B4404330FCB87E80F00FEF70FFD0025602323706570658028211D48FE
:2077000004F08BF93A23A371FF23E3713388882003F12802A118A0542C334D70D8F80010E0
:20772000E018E022E25402311022043003F09CFB338802224033E718E25415497A70B81C53
:20774000082203F091FB0622294607F10A0003F065FC338828331C44658004F05BFAC043EC
:2077600060805020FEF7B6FC01E0FEF7D1FC05B0BDE8F08F285D002032530020144B0020CD
:20778000E3550020305D0020184B0020405D0020205D0020185D0020104B00200148FEF7B9
:2077A00075BD00BFD84100200C4AB82303FB00220023F0B553821E461A4640F24C550849C9
:2077C000CC18A77827B15F5C874204BFA67001327133AB42F4D11046F0BD00BF3C4B00207F
:2077E000F0550020044B01221A70FD2100225A709970DA70704700BFE655002010B5134CD6
:207800000220A179FDF7F6FBA379112B02D1218D638D07E0062B09D10D4B1B8828331A1903
:20782000195B53889942A8BF194609E03A2B06D1074B28341B88195B49BA89B200E000212F
:207840000120BDE81040FDF7D5BB00BF285D00203253002038B513780546087A83F00203C8
:2078600098421DD1487A5378984219D1887A9378984215D1C87AD378984211D1087B1379CA
:2078800098420DD1487B5379984209D1887B9379984205D1C87BD379984201D103201CE0D4
:2078A0000B890F4C83B94B89B3F57F4F0CD18B89FE2B09D102220E31206803F0D5FA236827
:2078C00002200233236008E008221144206803F0CBFA2368012008332360A840C0B238BD6E
:2078E000284B002010B5074C01462378012B01D0002010BD0822A01C03F084FA0028F7D1CA
:20790000204610BDE655002008B501460E20FDF77FFB044B00219B6803489847BDE80840AF
:20792000FAF7F8BF9CBF200019812000F8B5154A154D164C2B7817680E46154922680144F7
:20794000F81803F091FA23682878184480B2FDF77DFAFDF77BF8044608B90020F8BD3046B8
:20796000FFF7D2FF2046FDF7A9F82046FDF790F8084B1B68012BF0D0043B012BEDD901204F
:20798000F8BD00BF2C4B00203C5B0020304B0020285D0020344B00202DE9F04F944F954D2C
:2079A000002389B03B702B700446FDF7D9FAFDF769FA914B914E1B683060019703950BB103
:2079C000FFF71CFF0CB98E4900E0214606A803F0AEFD0420FEF788FB01460620FDF70AFB65
:2079E00006A90E20FDF714FB864B9B699847864B0028186040F37883039B31681B78834FB8
:207A00000233CA183A6008442632824280F06C830022CA547E48FFF765FF20B13B68802476
:207A200001333B6005E07B48FFF75CFF0028F5D10446DFF8E89199F8011099F800000B09AF
:207A400043EA0013DBB29A0842EA8313DBB211F00F0FDDB200F00F000CD1B9F802204AB908
:207A600010B911F0F00F23D03B6803F8015B3B6070251EE088B911F0F00F0ED1386823F04F
:207A80003F030B4300F8013B0222634903F0ECF93B68682503333B600BE004225F49386820
:207AA00003F0E2F93B6803F8045B3B60602500E0782599F80630112B06D02BB13C2B03D06F
:207AC000A3F12B02012A01D845F0040569075CBF3A6802F8013B99F8073058BF3A60402B5C
:207AE00006D0FF2B07D0012B08D145F0010509E045F0020506E045F0030503E03A6802F8A8
:207B0000013B3A60B9F80820444B82B95A8972B99A8962B9DA8952B91A8A42B95A8A32B9C4
:207B20009A8A22B9DB8A13B944F0400015E03948FFF7D8FE3A4B186088B1039B31681B785F
:207B400040780233CA5C42EA0012CA540420354A3049FFF77FFE60F03F00C4B21BE048F2ED
:207B6000FE03B9F808202D499A420CD14B8B53B98B8B43B9CB8B33B92A4A08310420FFF7FF
:207B800069FE2043E9E710222249386803F06CF93B6810333B6099F81830DFF88080FF2B5B
:207BA0007ED198F8193044F0080A022B5FFA8AFA3AD1B8F81A20BABBB8F81C20A2BBB8F8EA
:207BC0001E208ABBB8F8202072BBB8F822205ABBB8F8242042BB98F826202ABB98F827207B
:207BE0003B6844F00B00C4B203F8012B90E000BFE55500203C5B00201C4B00202C4B0020A8
:207C000024C020009CBF2000384B0020284B0020405D0020305D00202A5D0020285D0020F9
:207C2000204B0020205D0020B9F81A2099496ABB8A8B5ABBCA8B9AB90A8C8AB94A8C7AB976
:207C400091F8242062B944F00A00C4B23868032200F8013B253103F007F93B68043357E035
:207C6000B9F81E208B498AB90A8C7AB991F8222062B944F00900C4B23868052200F8013BA1
:207C8000233103F0F1F83B68063341E010228249386803F0E9F83B68544610333B6038E013
:207CA00008F11800FFF71EFE7C4B0146186088B1039B30681B784A78023310F803E044F003
:207CC00004044EEA0202C254E4B206AA08F11801002011E048F2FE03B8F818209A4210D101
:207CE000B8F81A306BB9B8F81C3053B9B8F81E303BB906AA08F11801FFF7ACFD2043C4B232
:207D000007E010226449386803F0AEF83B6810333B60019A282313703B68DFF88C8102935E
:207D20005F4B4FF0000B0493049BDFF87CA11F78112F40F0BD80DFF85CE10BF1280C3CF869
:207D40000E10DAF800300A0A42EA01224FF2B00192B222F00F091FFA89F9581C8945CAF8A1
:207D600000000CEB0E07DFF8448123D1B7F802B04FEA1B2141EA0B2121F00F0189B2494550
:207D800018D102994748F3220A700068D8F80020991C0244914280F0A7813CF80E20CAF85F
:207DA0000010100A7A88120A02EB001202F5AA625A7053E07988DFF8F490090289B2B1F534
:207DC000704F384918D1029A4FF0F10E82F800E0D9F800E00A6804337244934280F08481EC
:207DE0000222394603F040F82F497A880B68120A9A7003330B6031E002F47F42B2F5704FD3
:207E000017D10298F2220270D9F800900A68181D4A44904280F068813CF80E20120A5A7051
:207E200002229818B91803F01FF81F4A1368033313E0029A4FF0F00E82F800E0D9F800E0A2
:207E40000A6805337244934280F04E810422394603F00AF8144A136804331360DFF84890E2
:207E6000104BD9F80000D8F800101B68821C0B449A4280F039810222B91D02F0F5FFD9F8CF
:207E80000030019A0233C9F80030019B1B78083313707AE0285D0020405D0020204B0020BD
:207EA0002E5D0020384B0020284B00202C4B0020002F5ED18E4B7A1C0BF1280A8C4A5344E2
:207EC00093F8019012F80A2008BF03274FEAC909112A09F10809049312D08AB13C2A0FD017
:207EE0002B3A012A0CD98349D8F80020086882490132096801448A4280F0F680C8F800209B
:207F00007C4AD8F80000D2F800E07B4A00EB090112687244914280F0E78019464A46059306
:207F200002F0A2FFD8F80010019B5FFA89F0821E4A701A78494402441A706D4BCB4413F845
:207F40000A20C8F80010112A059B08D03AB13C2A05D02B3A012A8CBF0022012200E001222B
:207F60007F0067F01F0702983A4302706BB10291DAE63C2F02D14FF0FF379BE72B2F00F08E
:207F8000B1802C2F01D1022794E7DFF88091DFF864A199F80030DAF8002006A9D554134439
:207FA0005C70564B0E201B68554D9B1A89F80030FDF72EF8019B504829881B7899F80080F8
:207FC0000468CA1A02EB0800A042574672DDC8EB0408A8F1040828F00708053CC8EB02020B
:207FE000121B22EAE27224F0070532B102F1FF3999FBF5F909F1030901E04FF00209FCF720
:208000001FFD814570DAB8F1000F6DDB3D4B00221A603D4B3168B3F80090081D09F1010292
:208020001A80039B1A7802F095FF039B039A1B7806A9043313703268314E82F803903388D8
:208040001B0A63F03F031370338853704FEA19239370019BDFF8BC901878C9F80080FFF767
:2080600065FCB04600283FD0284B05221A70214B1A6833881B0A63F01F031370338853700A
:20808000234B1E78D9F800301E44B8F80030B6B29E4225D29B1B9C42B8BF2B463A68F10843
:2080A0001171304606A9C9F80030FFF73FFC0028E8D119E0994217D3DAF800000C494044AD
:2080C000194402F0D1FE2B8899F800001844104B1B78C01A80B2FCF7B9FE06A8FFF714FC8A
:2080E000012002E00127E5E6002009B0BDE8F08F285D00202C4B0020384B0020284B00201B
:20810000185D0020344B0020565400203C5B0020E5550020304B002070B5124B0C461B685E
:20812000154613B19B68084698470F4B0E201C60FCF77AFF0D49064603F0FCF980B92A464D
:2081400021463046FCF7CEFF094B214630462A465B6C984729462046BDE8704003F0B9BDA8
:2081600070BD00BF1C4B0020344B002024C02000C8BF2000F8B506460F46FCF771FE104B37
:208180001D78441B6E2C18D80E4A0023712101FB032090F802E0BEF1000F0BD10A4B477025
:2081A00019688470224600F8036B294402F05CFE2046F8BD01330C2BE9D14FF0FF30F8BD60
:2081C0003C5B0020F05500202C4B00202DE9F04115090F2D06461F4602F00F0403D00F2C87
:2081E00032D045B103E00F2C2CD1102425462A46304602F039FE2A190F2AA04605DCC2F1C8
:2082000010020021701902F009FFA4B1124FC8F1100022463968304402F026FE022C05D192
:208220000A2D9FBFFF23F372FE2333733A6822443A60BDE8F08165B139463046BDE8F041C2
:2082400003F092BC1025D2E71024002DCFD1A046DCE7BDE8F08100BF284B00202DE9F04790
:20826000074688461546002A49D0424C0026A146238ABB4216D1638AA3B10D20FCF7D4FEE6
:208280000146204603F056F960B1F4B229462046FFF770FF002829DA4FF00008DFF8D8A03D
:2082A00047460DE00136022E04F1B804E0D1FF245DE0B74209D10137022F0AF1B80A0ED044
:2082C0003AF8063C002BF6D0F3E7504602F0FAFF0028F0D0F8B2FFF767FA8044EBE7B8F1B6
:2082E000000FE4DD29462046FFF744FF0028DEDDB82303FB0696B38A1844B08237E01E4EFA
:20830000FF2436F8063C4FFA84F963B3304602F0D9FF10B1E8B2FFF747FAB9F1FF3F03D160
:2083200036F8063C03B9ECB20135022D06F1B806E7D165B26B1C1AD0B8235D43DFF8349003
:208340000D2009EB0506A6F812803782FCF76CFE0146304603F0EBF805F11800402148441D
:2083600002F0A9FF03E0B9F1FF3FDDD1DBE760B2BDE8F0873C4B0020544B00202DE9F04F3F
:208380000D2089B0A44FA54EFCF74EFE0024FCF7E3FE34703C70FCF775FDA14D2860FCF73C
:2083A0005FFDA8460197002800F0A283FDF7B0FE0420FCF727FE9B4B00B218602B681A788B
:2083C0005D7845EA022502F0F802C02A02D0E02A1BD03FE09F78D878019B019A1B78C5F3CD
:2083E0000A050433137040EA072022462946FFF735FF421C074600F07B838B4CB82303FB19
:2084000000444FF00109223428E09F7893F804A0D878019B019A1B78C5F30A05053313708F
:2084200040EA072052462946FFF718FF431C074600F05E837C4AB82303FB0023B3F8148059
:20844000A146A84534BF4FF000084FF001084FF0010B57E22746B9462546744C744B0022CA
:208460001A70019AD8F800101278885C00F0F00EBEF1F00F05D100F00F00187066480132AF
:2084800002701B78012B00F23383019BDFF888811A788B5C03F0E000602840F0FE81901C58
:2084A0000A4492F801A0DFF88C815FFA8AFB08441BF0800FC8F800001CBF0130C8F800000F
:2084C00013F0100F03F0080236D10293E2B9D8F8001003220131601C02F0C6FCD8F80020EF
:2084E00012F8040BC8F80020820802F00F0141F060012170617802F0300242EA801201F028
:208500000F010A43627015E06022D8F80010227011F8012B900800F0300002F00F0202430E
:2085200062700222A01802F09FFCD8F800200332C8F80020029B1CE002F0FF00A2B9D8F846
:2085400000201178C1F3830141F06001217012F801EB60804FEA9E0101F0300141EA8E117D
:208560006170C8F8002004E06022227000226270628003F0040202F0FF0103912AB92D49A4
:208580000A6812F8010BA0710A6013F003030BBF284A294A1368D35C09BF13F8011BE37133
:2085A0001360E1711AF0400FCAF301124CD01BF0800F1FBF1A49019B09681B780FBF002147
:2085C0005B189978090922B904F10808A2B9114615E01A4B1878012806D193F801808845B0
:2085E0000CBF1946002100E00021154B19600029EAD1CB46884684E1114B19680231114BC2
:208600000D209A5C04910292FCF70EFD029A03460499404623E000BF3C5B0020E555002035
:208620002C4B0020244B00203C4B0020285D0020E4550020284B002098C32000E655002006
:20864000204B00209CC32000A14B0D2013F80280FCF7EAFC42469F49034604F10800FFF7E5
:20866000B5FD0AF008010AF0030201F0FF080AF00403A1B1002B50D1974B1B88ADF81C3039
:20868000531E012B06D895490B6813F8010B8DF81D000B60924900238A5C07A939E07BB30F
:2086A0001BF0800F1FBF019B8E491B7809680CBF43465B188C4918BF93F80280087818BFF4
:2086C00008F00F03012807D191F8018098450CBF88464FF0000801E04FF00008834BC3F817
:2086E0000080B8F1000F00F0ED80814B0E2013F802A0FCF799FC5246034608F1020108E0F1
:20870000734B0E2013F80280FCF78EFC42460346704904F11800FFF759FD0022337802921F
:20872000744A2833C2F10202DFF8B0A1337004F12808A31D0492039ADFF8A0B1002A00F044
:208740009280DAF800100A7802F0F000E02840F06E81C2F3420012F0010201F1010E039208
:2087600004BF4A780231CAF800E008BFCAF80010DAF8001018BF002211F801BBCAF8001094
:20878000032800F2BB80DFE800F002080406002004E02C2002E03C2000E02B2018700BF179
:2087A0000203DB10013B88F8013088F80020434635B9049A42445A44B2F5A06F00F2848057
:2087C0005A4608F10200059302F04EFBDAF80020029B5A44CAF8002098F801203078013290
:2087E000D200D1B208441944CBB2029330709044059BA0E702220131404602F035FBDBF8FD
:208800000020D3780432A3F580539BB21B0243F0F003A8F80230CBF80020BAF1000F0BD171
:208820000222DBF8001008F1060002F01DFBDBF800300233CBF80030FCF712FB294ADBF8B7
:2088400000301268002D00F04E81029BA5F12800C01A80B203029BB2000A18433378A8F819
:208860000400083333701F4ADBF8003012689B1A019A13705DB9FCF7F3FA1F4B1B78C01A90
:208880003378184428380312237160711CE0A5F128031A122271637130E0412B40F0288152
:2088A0000132D3B219442822204688F8003002F0DBFA98F80030283388F8003033782833AB
:2088C00033701BE0CB461CE0CB46A846AA4619E083C3200087C3200081C32000284B00203E
:2088E00089C320002C4B0020E6550020204B00209CC32000285D00203C5B0020CB464FF064
:208900000008C246FCF7ACFA019B1B78834200F2EF80FCF7A5FA784B4FEACA0A19783378BB
